{
  "contractName": "SupplyChain",
  "abi": [
    {
      "anonymous": false,
      "inputs": [
        {
          "indexed": false,
          "internalType": "uint256",
          "name": "id",
          "type": "uint256"
        },
        {
          "indexed": false,
          "internalType": "address",
          "name": "infirmier",
          "type": "address"
        }
      ],
      "name": "Administration",
      "type": "event"
    },
    {
      "anonymous": false,
      "inputs": [
        {
          "indexed": false,
          "internalType": "uint256",
          "name": "id",
          "type": "uint256"
        },
        {
          "indexed": false,
          "internalType": "string",
          "name": "nom",
          "type": "string"
        }
      ],
      "name": "NouveauLot",
      "type": "event"
    },
    {
      "anonymous": false,
      "inputs": [
        {
          "indexed": false,
          "internalType": "uint256",
          "name": "id",
          "type": "uint256"
        },
        {
          "indexed": false,
          "internalType": "address",
          "name": "pharmacien",
          "type": "address"
        }
      ],
      "name": "ReceptionPharmacie",
      "type": "event"
    },
    {
      "anonymous": false,
      "inputs": [
        {
          "indexed": false,
          "internalType": "uint256",
          "name": "id",
          "type": "uint256"
        },
        {
          "indexed": false,
          "internalType": "address",
          "name": "hopital",
          "type": "address"
        }
      ],
      "name": "ValidationHopital",
      "type": "event"
    },
    {
      "inputs": [
        {
          "internalType": "uint256",
          "name": "",
          "type": "uint256"
        }
      ],
      "name": "lots",
      "outputs": [
        {
          "internalType": "uint256",
          "name": "id",
          "type": "uint256"
        },
        {
          "internalType": "string",
          "name": "nom",
          "type": "string"
        },
        {
          "internalType": "enum SupplyChain.State",
          "name": "etat",
          "type": "uint8"
        },
        {
          "internalType": "address",
          "name": "auteurDerniereAction",
          "type": "address"
        },
        {
          "internalType": "uint256",
          "name": "dateAction",
          "type": "uint256"
        }
      ],
      "stateMutability": "view",
      "type": "function",
      "constant": true
    },
    {
      "inputs": [
        {
          "internalType": "uint256",
          "name": "_id",
          "type": "uint256"
        },
        {
          "internalType": "string",
          "name": "_nom",
          "type": "string"
        }
      ],
      "name": "creerLot",
      "outputs": [],
      "stateMutability": "nonpayable",
      "type": "function"
    },
    {
      "inputs": [
        {
          "internalType": "uint256",
          "name": "_id",
          "type": "uint256"
        }
      ],
      "name": "validerReceptionHopital",
      "outputs": [],
      "stateMutability": "nonpayable",
      "type": "function"
    },
    {
      "inputs": [
        {
          "internalType": "uint256",
          "name": "_id",
          "type": "uint256"
        }
      ],
      "name": "mettreEnPharmacie",
      "outputs": [],
      "stateMutability": "nonpayable",
      "type": "function"
    },
    {
      "inputs": [
        {
          "internalType": "uint256",
          "name": "_id",
          "type": "uint256"
        }
      ],
      "name": "administrerPatient",
      "outputs": [],
      "stateMutability": "nonpayable",
      "type": "function"
    }
  ],
  "bytecode": "0x608060405234801561001057600080fd5b506108b5806100206000396000f3fe608060405234801561001057600080fd5b50600436106100565760003560e01c80626e25411461005b578063134ef11f14610070578063a115b2ee14610083578063d3c3f70014610096578063f1648e84146100a9575b600080fd5b61006e610069366004610571565b6100d6565b005b61006e61007e3660046105a0565b6101b7565b61006e610091366004610571565b6102e7565b61006e6100a4366004610571565b6103cb565b6100bc6100b7366004610571565b6104ac565b6040516100cd9594939291906106b7565b60405180910390f35b600081815260208190526040902060028082015460ff1660038111156100fe576100fe6106a1565b146101505760405162461bcd60e51b815260206004820152601d60248201527f4c65206c6f7420646f6974206574726520656e20706861726d6163696500000060448201526064015b60405180910390fd5b60028101805460036001600160a81b031990911633610100810291909117821790925542908301556040805184815260208101929092527f5ce4da5d68dc5d101354ada45397da559babc1484501c211993a7386a8b2cb7a91015b60405180910390a15050565b600082815260208190526040902054156102085760405162461bcd60e51b81526020600482015260126024820152714365206c6f74206578697374652064656a6160701b6044820152606401610147565b6040805160a08101825283815260208082018481526000838501819052336060850152426080850152868152918290529290208151815591519091906001820190610253908261079e565b50604082015160028201805460ff19166001836003811115610277576102776106a1565b021790555060608201516002820180546001600160a01b0390921661010002610100600160a81b03199092169190911790556080909101516003909101556040517f88a1f51b0e573b3fcefb25ab279d55cc3e09512e4b01e1ef05f4cbc94da66ef0906101ab908490849061085e565b600081815260208190526040812090600282015460ff16600381111561030f5761030f6106a1565b1461036b5760405162461bcd60e51b815260206004820152602660248201527f4c65206c6f7420646f69742065747265206372656520706172206c652067726f60448201526573736973746560d01b6064820152608401610147565b600281018054610100339081026001600160a81b0319909216919091176001179091554260038301556040805184815260208101929092527fab64cea60a5a37e24aa9da0c2e131225df7aea537ed2593f7f84228440e2694591016101ab565b60008181526020819052604090206001600282015460ff1660038111156103f4576103f46106a1565b1461044f5760405162461bcd60e51b815260206004820152602560248201527f4c65206c6f7420646f697420657472652076616c69646520706172206c27686f6044820152641c1a5d185b60da1b6064820152608401610147565b600281810180546001600160a81b0319163361010081029190911790921790554260038301556040805184815260208101929092527ff0c632a192fe5e358387003a0a82042941749e3b08f283d212bd69385db87b7c91016101ab565b600060208190529081526040902080546001820180549192916104ce90610715565b80601f01602080910402602001604051908101604052809291908181526020018280546104fa90610715565b80156105475780601f1061051c57610100808354040283529160200191610547565b820191906000526020600020905b81548152906001019060200180831161052a57829003601f168201915b505050506002830154600390930154919260ff8116926101009091046001600160a01b0316915085565b60006020828403121561058357600080fd5b5035919050565b634e487b7160e01b600052604160045260246000fd5b600080604083850312156105b357600080fd5b82359150602083013567ffffffffffffffff808211156105d257600080fd5b818501915085601f8301126105e657600080fd5b8135818111156105f8576105f861058a565b604051601f8201601f19908116603f011681019083821181831017156106205761062061058a565b8160405282815288602084870101111561063957600080fd5b8260208601602083013760006020848301015280955050505050509250929050565b6000815180845260005b8181101561068157602081850181015186830182015201610665565b506000602082860101526020601f19601f83011685010191505092915050565b634e487b7160e01b600052602160045260246000fd5b85815260a0602082015260006106d060a083018761065b565b9050600485106106f057634e487b7160e01b600052602160045260246000fd5b60408201949094526001600160a01b0392909216606083015260809091015292915050565b600181811c9082168061072957607f821691505b60208210810361074957634e487b7160e01b600052602260045260246000fd5b50919050565b601f82111561079957600081815260208120601f850160051c810160208610156107765750805b601f850160051c820191505b8181101561079557828155600101610782565b5050505b505050565b815167ffffffffffffffff8111156107b8576107b861058a565b6107cc816107c68454610715565b8461074f565b602080601f83116001811461080157600084156107e95750858301515b600019600386901b1c1916600185901b178555610795565b600085815260208120601f198616915b8281101561083057888601518255948401946001909101908401610811565b508582101561084e5787850151600019600388901b60f8161c191681555b5050505050600190811b01905550565b828152604060208201526000610877604083018461065b565b94935050505056fea2646970667358221220102a1f3185a9ad0c70bd43e2af21640f4636206df23043e4cdb8e730f707aff164736f6c63430008150033",
  "immutableReferences": {},
  "source": "// SPDX-License-Identifier: MIT\r\npragma solidity ^0.8.0;\r\n\r\ncontract SupplyChain {\r\n\r\n    // --- LES 4 ETATS DU MEDICAMENT ---\r\n    enum State { \r\n        CREE_PAR_GROSSISTE,   // 0\r\n        VALIDE_PAR_HOPITAL,   // 1 (Nouvelle tape ajoute)\r\n        EN_STOCK_PHARMACIE,   // 2\r\n        ADMINISTRE            // 3\r\n    }\r\n\r\n    struct LotMedicament {\r\n        uint id;\r\n        string nom;\r\n        State etat;\r\n        address auteurDerniereAction;\r\n        uint dateAction;\r\n    }\r\n\r\n    mapping(uint => LotMedicament) public lots;\r\n\r\n    // --- EVENEMENTS ---\r\n    event NouveauLot(uint id, string nom);\r\n    event ValidationHopital(uint id, address hopital);\r\n    event ReceptionPharmacie(uint id, address pharmacien);\r\n    event Administration(uint id, address infirmier);\r\n\r\n    // --- ETAPE 1 : Le Grossiste cre le lot ---\r\n    function creerLot(uint _id, string memory _nom) public {\r\n        require(lots[_id].id == 0, \"Ce lot existe deja\");\r\n        \r\n        lots[_id] = LotMedicament({\r\n            id: _id,\r\n            nom: _nom,\r\n            etat: State.CREE_PAR_GROSSISTE,\r\n            auteurDerniereAction: msg.sender,\r\n            dateAction: block.timestamp\r\n        });\r\n\r\n        emit NouveauLot(_id, _nom);\r\n    }\r\n\r\n    // --- ETAPE 2 : L'Hpital valide la rception (Le Quai de dchargement) ---\r\n    function validerReceptionHopital(uint _id) public {\r\n        LotMedicament storage lot = lots[_id];\r\n        // On vrifie que le grossiste l'a bien envoy\r\n        require(lot.etat == State.CREE_PAR_GROSSISTE, \"Le lot doit etre cree par le grossiste\");\r\n\r\n        lot.etat = State.VALIDE_PAR_HOPITAL;\r\n        lot.auteurDerniereAction = msg.sender;\r\n        lot.dateAction = block.timestamp;\r\n\r\n        emit ValidationHopital(_id, msg.sender);\r\n    }\r\n\r\n    // --- ETAPE 3 : Le Pharmacien rcupre le lot pour son stock ---\r\n    function mettreEnPharmacie(uint _id) public {\r\n        LotMedicament storage lot = lots[_id];\r\n        // On vrifie que l'hpital a valid l'entre\r\n        require(lot.etat == State.VALIDE_PAR_HOPITAL, \"Le lot doit etre valide par l'hopital\");\r\n\r\n        lot.etat = State.EN_STOCK_PHARMACIE;\r\n        lot.auteurDerniereAction = msg.sender;\r\n        lot.dateAction = block.timestamp;\r\n\r\n        emit ReceptionPharmacie(_id, msg.sender);\r\n    }\r\n\r\n    // --- ETAPE 4 : L'Infirmier administre le mdicament ---\r\n    function administrerPatient(uint _id) public {\r\n        LotMedicament storage lot = lots[_id];\r\n        // On vrifie que c'est bien disponible en pharmacie\r\n        require(lot.etat == State.EN_STOCK_PHARMACIE, \"Le lot doit etre en pharmacie\");\r\n\r\n        lot.etat = State.ADMINISTRE;\r\n        lot.auteurDerniereAction = msg.sender;\r\n        lot.dateAction = block.timestamp;\r\n\r\n        emit Administration(_id, msg.sender);\r\n    }\r\n}",
  "sourcePath": "C:\\Users\\sami\\Desktop\\5MG\\Flutter\\Blockchaine\\contracts\\SupplyChain.sol",
  "compiler": {
    "name": "solc",
    "version": "0.8.21+commit.d9974bed.Emscripten.clang"
  },
  "schemaVersion": "3.4.16",
  "updatedAt": "2025-12-16T15:19:16.164Z",
  "networkType": "ethereum",
  "devdoc": {
    "kind": "dev",
    "methods": {},
    "version": 1
  },
  "userdoc": {
    "kind": "user",
    "methods": {},
    "version": 1
  }
}